:0302EF0001080003
:10024F0075985053890F438920AB07AA06E4F9F834
:10025F007F807E70FDFC12020BEFF404F58D858D0F
:08026F008BC2ABD2ACD28E228F
:0D0003007F23120010D282D283C280D281EE
:0F0010007E05AD07EDD3940040031D80F7DEF3AE
:01001F0022BE
:1002CC00C282D283120003D280D2817F1902001025
:10027700D282C2837F23120010D282D283D280C25D
:0D02870081120010D280D2817F1902001078
:1002B100D282C283120003D280D2817F1912001030
:0B02C100D282D283D280D281020010D2
:10029400C282D2837F23120010D282D283D280C240
:0D02A40081120010D280D2817F190200105B
:0D02DC00D282D283D280D281D291D29222DE
:1001A600D2AF7F807E2512024FD282D283D280D2F6
:1001B60081E50812002601F30001DB1F01E02F0193
:1001C600E53F01EC4F01F8A001FCB00200C00204BB
:1001D600D0000002061202CC80261202778021127D
:1001E60002B1C291801A120294C29280131202DCEA
:1001F600800EC293800AD2938006C2908002D2906B
:050206001202DC80ACD7
:030023000202E9ED
:0602E900C298859908325D
:0300000002011AE0
:0C011A00787FE4F6D8FD758108020161D1
:10020B00C2D5E830E70FB2D5E4C39BFBE49AFAE41E
:10021B0099F9E498F8EC30E717B2D51202411200C5
:10022B0088E4C39BFBE49AFAE499F9E498F8800319
:10023B0012008830D50DE4C39FFFE49EFEE49DFDC4
:04024B00E49CFC2211
:10002600D083D082F8E4937012740193700DA3A369
:1000360093F8740193F5828883E47374029368607D
:06004600EFA3A3A380DF7D
:100126000201A6E493A3F8E493A34003F68001F248
:1001360008DFF48029E493A3F85407240CC8C333DA
:10014600C4540F4420C8834004F456800146F6DFA9
:10015600E4800B01020408102040809002EFE47E48
:10016600019360BCA3FF543F30E509541FFEE4939E
:10017600A360010ECF54C025E060A840B8E493A365
:10018600FAE493A3F8E493A3C8C582C8CAC583CA90
:10019600F0A3C8C582C8CAC583CADFE9DEE780BE48
:0102F200000B
:10004C0075F008758200EF2FFFEE33FECD33CDCC6B
:10005C0033CCC58233C5829BED9AEC99E5829840EE
:10006C000CF582EE9BFEED9AFDEC99FC0FD5F0D6CB
:10007C00E4CEFBE4CDFAE4CCF9A88222B800C1B9F5
:10008C000059BA002DEC8BF084CFCECDFCE5F0CB33
:10009C00F97818EF2FFFEE33FEED33FDEC33FCEB6C
:1000AC0033FB10D703994004EB99FB0FD8E5E4F927
:1000BC00FA227818EF2FFFEE33FEED33FDEC33FC14
:1000CC00C933C910D7059BE99A4007EC9BFCE99A08
:1000DC00F90FD8E0E4C9FAE4CCFB2275F010EF2F4D
:1000EC00FFEE33FEED33FDCC33CCC833C810D7074D
:1000FC009BEC9AE899400AED9BFDEC9AFCE899F888
:0E010C000FD5F0DAE4CDFBE4CCFAE4C8F9221A
:00000001FF
